{
  "contractName": "smartLend",
  "abi": [
    {
      "constant": false,
      "inputs": [
        {
          "name": "to",
          "type": "address"
        },
        {
          "name": "creditName",
          "type": "string"
        },
        {
          "name": "creditId",
          "type": "string"
        },
        {
          "name": "debitName",
          "type": "string"
        },
        {
          "name": "debitId",
          "type": "string"
        },
        {
          "name": "monthRate",
          "type": "uint256"
        },
        {
          "name": "defaultRate",
          "type": "uint256"
        },
        {
          "name": "totalToPay",
          "type": "uint256"
        },
        {
          "name": "startTime",
          "type": "uint256"
        },
        {
          "name": "dueTime",
          "type": "uint256"
        }
      ],
      "name": "creatLend",
      "outputs": [],
      "payable": false,
      "stateMutability": "nonpayable",
      "type": "function"
    },
    {
      "constant": false,
      "inputs": [
        {
          "name": "i",
          "type": "uint256"
        },
        {
          "name": "isConfirmed",
          "type": "string"
        }
      ],
      "name": "confirmLend",
      "outputs": [
        {
          "name": "",
          "type": "uint256"
        }
      ],
      "payable": false,
      "stateMutability": "nonpayable",
      "type": "function"
    },
    {
      "constant": false,
      "inputs": [],
      "name": "addMoney",
      "outputs": [],
      "payable": true,
      "stateMutability": "payable",
      "type": "function"
    },
    {
      "constant": false,
      "inputs": [],
      "name": "checkBalance",
      "outputs": [
        {
          "name": "value",
          "type": "uint256"
        }
      ],
      "payable": false,
      "stateMutability": "nonpayable",
      "type": "function"
    },
    {
      "constant": false,
      "inputs": [
        {
          "name": "id",
          "type": "uint256"
        }
      ],
      "name": "payLoan",
      "outputs": [],
      "payable": true,
      "stateMutability": "payable",
      "type": "function"
    },
    {
      "constant": false,
      "inputs": [
        {
          "name": "id",
          "type": "uint256"
        }
      ],
      "name": "closeLend",
      "outputs": [
        {
          "name": "",
          "type": "uint256"
        }
      ],
      "payable": false,
      "stateMutability": "nonpayable",
      "type": "function"
    }
  ],
  "bytecode": "0x608060405234801561001057600080fd5b506111e9806100206000396000f300608060405260043610610078576000357c0100000000000000000000000000000000000000000000000000000000900463ffffffff1680631b3f48421461007d57806336faf22f146100875780635a76d1821461010e5780639c9211211461014f578063a8d7b3ec146102dc578063c71daccb146102fc575b600080fd5b610085610327565b005b34801561009357600080fd5b506100f860048036038101908080359060200190929190803590602001908201803590602001908080601f0160208091040260200160405190810160405280939291908181526020018383808284378201915050505050509192919290505050610376565b6040518082815260200191505060405180910390f35b34801561011a57600080fd5b5061013960048036038101908080359060200190929190505050610555565b6040518082815260200191505060405180910390f35b34801561015b57600080fd5b506102da600480360381019080803573ffffffffffffffffffffffffffffffffffffffff169060200190929190803590602001908201803590602001908080601f0160208091040260200160405190810160405280939291908181526020018383808284378201915050505050509192919290803590602001908201803590602001908080601f0160208091040260200160405190810160405280939291908181526020018383808284378201915050505050509192919290803590602001908201803590602001908080601f0160208091040260200160405190810160405280939291908181526020018383808284378201915050505050509192919290803590602001908201803590602001908080601f0160208091040260200160405190810160405280939291908181526020018383808284378201915050505050509192919290803590602001909291908035906020019092919080359060200190929190803590602001909291908035906020019092919050505061071e565b005b6102fa60048036038101908080359060200190929190505050610b06565b005b34801561030857600080fd5b5061031161104a565b6040518082815260200191505060405180910390f35b34600160003373ffffffffffffffffffffffffffffffffffffffff1673ffffffffffffffffffffffffffffffffffffffff16815260200190815260200160002060008282540192505081905550565b600060405180807f79000000000000000000000000000000000000000000000000000000000000008152506001019050604051809103902060001916826040518082805190602001908083835b6020831015156103e857805182526020820191506020810190506020830392506103c3565b6001836020036101000a038019825116818451168082178552505050505050905001915050604051809103902060001916141561046157600160038481548110151561043057fe5b90600052602060002090600d0201600c0160006101000a81548160ff0219169083151502179055506001905061054f565b60405180807f6e000000000000000000000000000000000000000000000000000000000000008152506001019050604051809103902060001916826040518082805190602001908083835b6020831015156104d157805182526020820191506020810190506020830392506104ac565b6001836020036101000a038019825116818451168082178552505050505050905001915050604051809103902060001916141561054a57600160038481548110151561051957fe5b90600052602060002090600d0201600c0160016101000a81548160ff0219169083151502179055506002905061054f565b600090505b92915050565b60008060038381548110151561056757fe5b90600052602060002090600d020160116000820181600001908054600181600116156101000203166002900461059e929190611091565b50600182018160010190805460018160011615610100020316600290046105c6929190611091565b50600282018160020190805460018160011615610100020316600290046105ee929190611091565b5060038201816003019080546001816001161561010002031660029004610616929190611091565b50600482015481600401556005820154816005015560068201548160060155600782015481600701556008820154816008015560098201548160090155600a82015481600a0155600b82015481600b0155600c820160009054906101000a900460ff1681600c0160006101000a81548160ff021916908315150217905550600c820160019054906101000a900460ff1681600c0160016101000a81548160ff021916908315150217905550905050429050600060116007015414806106e75750640eaf6258006011600a0154820310155b156107135760016011600c0160016101000a81548160ff02191690831515021790555060019150610718565b600091505b50919050565b60006101c0604051908101604052808b81526020018a81526020018981526020018881526020018781526020018681526020018581526020018581526020016000815260200184815260200183815260200184815260200160001515815260200160001515815250600460008201518160000190805190602001906107a4929190611118565b5060208201518160010190805190602001906107c1929190611118565b5060408201518160020190805190602001906107de929190611118565b5060608201518160030190805190602001906107fb929190611118565b506080820151816004015560a0820151816005015560c0820151816006015560e082015181600701556101008201518160080155610120820151816009015561014082015181600a015561016082015181600b015561018082015181600c0160006101000a81548160ff0219169083151502179055506101a082015181600c0160016101000a81548160ff0219169083151502179055509050506001600360049080600181540180825580915050906001820390600052602060002090600d020160009091929091909150600082018160000190805460018160011615610100020316600290046108ed929190611091565b5060018201816001019080546001816001161561010002031660029004610915929190611091565b506002820181600201908054600181600116156101000203166002900461093d929190611091565b5060038201816003019080546001816001161561010002031660029004610965929190611091565b50600482015481600401556005820154816005015560068201548160060155600782015481600701556008820154816008015560098201548160090155600a82015481600a0155600b82015481600b0155600c820160009054906101000a900460ff1681600c0160006101000a81548160ff021916908315150217905550600c820160019054906101000a900460ff1681600c0160016101000a81548160ff021916908315150217905550505003905060408051908101604052803373ffffffffffffffffffffffffffffffffffffffff1681526020018c73ffffffffffffffffffffffffffffffffffffffff1681525060008083815260200190815260200160002060008201518160000160006101000a81548173ffffffffffffffffffffffffffffffffffffffff021916908373ffffffffffffffffffffffffffffffffffffffff16021790555060208201518160010160006101000a81548173ffffffffffffffffffffffffffffffffffffffff021916908373ffffffffffffffffffffffffffffffffffffffff1602179055509050505050505050505050505050565b6000600382815481101515610b1757fe5b90600052602060002090600d0201601160008201816000019080546001816001161561010002031660029004610b4e929190611091565b5060018201816001019080546001816001161561010002031660029004610b76929190611091565b5060028201816002019080546001816001161561010002031660029004610b9e929190611091565b5060038201816003019080546001816001161561010002031660029004610bc6929190611091565b50600482015481600401556005820154816005015560068201548160060155600782015481600701556008820154816008015560098201548160090155600a82015481600a0155600b82015481600b0155600c820160009054906101000a900460ff1681600c0160006101000a81548160ff021916908315150217905550600c820160019054906101000a900460ff1681600c0160016101000a81548160ff02191690831515021790555090505034600160003373ffffffffffffffffffffffffffffffffffffffff1673ffffffffffffffffffffffffffffffffffffffff16815260200190815260200160002060008282540392505081905550346001600080600086815260200190815260200160002060010160009054906101000a900473ffffffffffffffffffffffffffffffffffffffff1673ffffffffffffffffffffffffffffffffffffffff1673ffffffffffffffffffffffffffffffffffffffff1681526020019081526020016000206000828254019250508190555042905060006011600a01548203111515610d9c576305265c006011600b01548203612ee0601160040154811515610d7657fe5b046011600701540202811515610d8857fe5b046011600801600082825401925050819055505b60006011600a01548203118015610dc0575060006011600a01546011600b01540311155b15610ee057620151806011600a01548203612ee0601160050154811515610de357fe5b046011600701540202811515610df557fe5b046305265c006011600b01548303612ee0601160040154811515610e1557fe5b046011600701540202811515610e2757fe5b04016011600801600082825401925050819055506011600901548103601160060154026011600a0154820360116007015402811515610e6257fe5b04610258036002600080600086815260200190815260200160002060000160009054906101000a900473ffffffffffffffffffffffffffffffffffffffff1673ffffffffffffffffffffffffffffffffffffffff1673ffffffffffffffffffffffffffffffffffffffff168152602001908152602001600020819055505b60006011600a01548203118015610f03575060006011600a01546011600b015403115b15610ff8576305265c006011600b01548203612ee060116005015460116004015401811515610f2e57fe5b046011600701540202811515610f4057fe5b046011600801600082825401925050819055506011600901548103601160060154026011600b0154820360116007015402811515610f7a57fe5b04610258036002600080600086815260200190815260200160002060000160009054906101000a900473ffffffffffffffffffffffffffffffffffffffff1673ffffffffffffffffffffffffffffffffffffffff1673ffffffffffffffffffffffffffffffffffffffff168152602001908152602001600020819055505b6000601160080154340311156110325760006011600801819055506011600801543403601160070160008282540392505081905550611046565b346011600801600082825403925050819055505b5050565b6000600160003373ffffffffffffffffffffffffffffffffffffffff1673ffffffffffffffffffffffffffffffffffffffff16815260200190815260200160002054905090565b828054600181600116156101000203166002900490600052602060002090601f016020900481019282601f106110ca5780548555611107565b8280016001018555821561110757600052602060002091601f016020900482015b828111156111065782548255916001019190600101906110eb565b5b5090506111149190611198565b5090565b828054600181600116156101000203166002900490600052602060002090601f016020900481019282601f1061115957805160ff1916838001178555611187565b82800160010185558215611187579182015b8281111561118657825182559160200191906001019061116b565b5b5090506111949190611198565b5090565b6111ba91905b808211156111b657600081600090555060010161119e565b5090565b905600a165627a7a72305820e6443d9107de0b40789ddd2a8da2c48d592bd4a63830dac4c3b7ff6b566ce43e0029",
  "source": "pragma solidity ^0.4.23;\n\nimport './SafeMath.sol';\nimport './Ownable.sol';\n\n//pragma experimental ABI EncoderV2\n/*  功能规划：\n\t\t\n\t\t1.创建合约\n\n\t\t2.合约执行\n\n\t\t3.计算违约度 \n*/\ncontract smartLend {\n\t//除了不变的信息，还包括变动信息：\n\t//还款额capitalToPay、待还利息interestToPay、上一次还款时间lastTime、累积计息、已还利息interestPayed、罚息defaultRate、借条是否关闭isClosed)\n\t//逾期加收万5的滞纳金\n\tstruct Lend {\n\t\t\n\t\tstring creditName;\n\t\tstring creditId;\n\t\tstring debitName;\n\t\tstring debitId;\n\t\tuint monthRate;    \t//月利率————万几\n\t\tuint defaultRate;  \t//违约金月利率————万几\n\t\tuint totalToPay;\t\t\n\t\tuint capitalToPay; \t//待付本金\n\t\tuint interestToPay; //0\t//待付利息\n\t\tuint startTime; \n\t\tuint dueTime;   \n\t\tuint lastTime; //startTime\n\t\tbool isConfirmed;\n\t\tbool isClosed; //0\n\t} \n\n\t//借方和贷方的地址\n\tstruct Address {\n\n\t\taddress credit;\n\t\taddress debit;\n\t}\n\n\tmapping (uint=>Address) lendToOwner;\n\n\t//mapping (address=>Lend[]) creditOfLend; // 地址对应的借入款借条信息 creditOfLend[address] = [Lend(1), Lend(2),...]\n\t//mapping (address=>Lend[]) debitOfLend;  // 地址对应的借出款借条信息\n\t//mapping (Lend=>Address) public lendAdress;     // 每个借条对应的借款人和贷款人\n\tmapping (address=>uint) balances;       // 账户余额 balances[address] = uint;\n\tmapping (address=>uint) creditScore;\t   // 每个账户的信用积分\n\n\tLend[] lends;\n\t\n\tLend newLend;\n\tLend toPay;\n    \n\t//创建借条 前端将时间戳转化为字符串\n\tfunction creatLend(address to, string creditName, string creditId, string debitName, string debitId, uint monthRate, uint defaultRate, uint totalToPay, uint startTime, uint dueTime) {\n\n\t\tnewLend = Lend(creditName, creditId, debitName, debitId, monthRate, defaultRate, totalToPay, totalToPay, 0, startTime, dueTime, startTime, false, false);\n\n\t\tuint id = lends.push(newLend)-1;\n\t\tlendToOwner[id] = Address(msg.sender, to);\n\n\t\t//require(confirmLend(isConfirmed)==1);\n\n\t\t//debitOfLend[to].push(newLend);\n\t\t//creditOfLend[msg.sender].push(newLend);\n\t}\n\n\tfunction _checkUncomfirmed() private returns(Lend[]) {\n\n\t\tLend[] unConfirmedLend; \n\t\tfor (uint i; i < lends.length;i++) {\n\n\t\t\tif (lendToOwner[i].debit == msg.sender && lends[i].isConfirmed == false) {\n\n\t\t\t\t//checkLend(i);\n\t\t\t\tunConfirmedLend.push(lends[i]);\n\t\t\t}\n\n\t\t}\n\n\t\treturn unConfirmedLend;\n\t}\n\n\t//借方确认——通过输入y\n\tfunction confirmLend(uint i, string isConfirmed) returns(uint) {\n        \n\t\tif (keccak256(isConfirmed) == keccak256(\"y\")) {\n\t\t\tlends[i].isConfirmed = true;\n\t\t\treturn 1;\n\t\t}\n\n\t\tif (keccak256(isConfirmed) == keccak256(\"n\")) {\n\t\t\tlends[i].isClosed = true;\n\t\t\treturn 2;\n\t\t}\t\t\n\n\t\treturn 0;\n\t}\n\n\t//转账到账户\n\tfunction addMoney() public payable {\n\n\t\tbalances[msg.sender] += msg.value;\n\t}\n\n\t//检查账户余额\n\tfunction checkBalance() public returns(uint value) {\n\n\t\treturn balances[msg.sender];\n\t} \n\n\t//检查待还款余额\n\tfunction checkLend(uint id) private returns(string creditName, string creditId, string debitName, string debitId, uint monthRate,uint defaultRate, uint totalToPay, uint capitalToPay, uint interestToPay, uint startTime, uint dueTime, uint lastTime, bool isConfirmed, bool isClosed) {\n        require(msg.sender == lendToOwner[id].credit || msg.sender == lendToOwner[id].debit);\n\t\tcreditName = lends[id].creditName;\n\t\tcreditId = lends[id].creditId;\n        debitName = lends[id].debitName;\n        debitId = lends[id].debitId;\n        monthRate = lends[id].monthRate;\n        defaultRate = lends[id].defaultRate;\n        totalToPay = lends[id].totalToPay;\n        capitalToPay = lends[id].capitalToPay;\n        interestToPay = lends[id].interestToPay;\n        startTime = lends[id].startTime;\n        dueTime = lends[id].dueTime;\n        lastTime = lends[id].lastTime;\n        isConfirmed = lends[id].isConfirmed;\n        isClosed = lends[id].isClosed;\n\t\t\n\n\t}\n\n\t//modifier checkId(Lend toPay) {\n\n\t//}\n\n\t//还款\n\tfunction payLoan(uint id) payable {\n\t\t//完成转账\n\t\ttoPay = lends[id];\n\n\t/*\tfor(uint i=0;i<=lends.length;i++) {\n\n\t\t\tif(toPay == lends[i]) {\n\n\t\t\t\tid = i;\n\t\t\t}\n\t\t}*/\n\n\t\tbalances[msg.sender] -= msg.value;\n\t\tbalances[lendToOwner[id].debit] += msg.value;\n\t\tvar nowTime = now;\n\t\t//更新Lend信息\n\n\t\t//更新待付利息\n\n\t\t//未逾期\n\t\tif(nowTime-toPay.dueTime <= 0) {\n\n\t\t\ttoPay.interestToPay += toPay.capitalToPay * (toPay.monthRate/(12*1000)) *(nowTime-toPay.lastTime)/(3600*24*1000);\n\t\t}\n\n\t\t//现已逾期，上次还款未逾期\n\t\tif(nowTime-toPay.dueTime>0 && toPay.lastTime-toPay.dueTime<=0) {\n\n\t\t\ttoPay.interestToPay += toPay.capitalToPay * (toPay.monthRate/(12*1000)) *(nowTime-toPay.lastTime)/(3600*24*1000) +  toPay.capitalToPay * (toPay.defaultRate/(12*1000))*(nowTime-toPay.dueTime)/(3600*24);\n\n\t\t\tcreditScore[lendToOwner[id].credit] = 600 - (toPay.capitalToPay * (nowTime-toPay.dueTime)/(toPay.totalToPay * (nowTime-toPay.startTime)));  \n\t\t}\n\n\t\t//上次还款已逾期 \n\t\tif(nowTime-toPay.dueTime>0 && toPay.lastTime-toPay.dueTime>0) {\n\n\t\t\ttoPay.interestToPay += toPay.capitalToPay * ((toPay.monthRate+toPay.defaultRate)/(12*1000)) *(nowTime-toPay.lastTime)/(3600*24*1000);\n\t\t\tcreditScore[lendToOwner[id].credit] = 600 - toPay.capitalToPay * (nowTime-toPay.lastTime)/(toPay.totalToPay * (nowTime-toPay.startTime)); \n\t\t}\n\n\t\t//更新待付本金\n\t\tif(msg.value-toPay.interestToPay > 0) {\n\n\t\t\ttoPay.interestToPay = 0;\n\t\t\ttoPay.capitalToPay -= msg.value-toPay.interestToPay;\n\t\t}\n\t\telse {\n\n\t\t\ttoPay.interestToPay -= msg.value;\n\n\t\t}\n\n\t\t //检查是否逾期，更新信用值\n\n\t}\n\n\n\t//逾期还款完成或到期之前还款完成或逾期超过两年未追溯\n\tfunction closeLend(uint id) returns(uint) {\n\n        toPay = lends[id];\n        \n\t\tvar nowTime = now;\n\n\t\tif(toPay.capitalToPay == 0 || nowTime - toPay.dueTime >= 63072000000) {\n\n\t\t\ttoPay.isClosed = true;\n\n\t\t\treturn 1;\n\t\t}\n\n\t\treturn 0;\n\t}\n\n\n\n}\n",
  "sourcePath": "/Users/star/Desktop/smartLend/smartLend/contracts/SmartLend.sol",
  "compiler": {
    "name": "solc",
    "version": "0.4.24+commit.e67f0147.Emscripten.clang"
  },
  "schemaVersion": "2.0.1",
  "updatedAt": "2018-08-03T09:32:11.793Z"
}